S01A00006D65676133325F447269766572735F4170702E737265634D
S11300000C942A000C9447000C9447000C9447006D
S11300100C9447000C9447000C9447000C94470040
S11300200C9447000C9447000C9476050C944700FC
S11300300C9447000C9447000C9447000C94470020
S11300400C9447000C9447000C9447000C94470010
S11300500C94470011241FBECFE5D8E0DEBFCDBF0E
S113006010E0A0E6B0E0ECECF1E102C005900D92E6
S1130070AA3FB107D9F720E0AAEFB0E001C01D9272
S1130080AD3FB207E1F70E9455000C94E4080C94CC
S11300900000DC01E62FF72F96E081E33D912191EA
S11300A0321380E39150D1F70895CF93DF93CDB706
S11300B0DEB7A2970FB6F894DEBF0FBECDBF86E0C1
S11300C0E4EFF0E0DE01119601900D928A95E1F7DC
S11300D01F8286E0E0E6F0E0DE01539601900D9287
S11300E08A95E1F71F8E0E94BC020E94E3030E94DE
S11300F0D7040E949D0580E895E20E949606E12CB3
S113010003E021E04AE061E083E00E9410061AA2C5
S113011081E089A318A2CE0180960E9470064FEF59
S113012060E181E00E94EB0440E060E181E00E9434
S11301301B054FEF60E181E00E941B0580E80E94EF
S1130140910684E10E94910640E060E181E00E9412
S11301501B05AE01415E5F4F66E070E0CE01019683
S11301600E9449048F8D813061F0AE01415E5F4F82
S113017066E070E0CE0101960E9491048F8D81307B
S113018041F702E066246394812C7E0129E1E20EAA
S1130190F11CB62CA82C4E2C5F2C0F2EF3E07F2ED6
S11301A0F02D912C86E690E00E941E04662D882D89
S11301B00E943104CE0107960E94CC028F81182D33
S11301C022C0072D01C002E06B2D8A2D0E9431044C
S11301D0CE0107960E94CC028F819B2D163009F028
S11301E09A2D992381F09B2D833209F09A2D99231E
S11301F051F00E942D0481E090E00E946F0581304F
S113020009F057C041C02B2D8A3209F02A2D9B2DAD
S1130210023009F09A2D3B2D8E3609F43A2D9323A2
S11302203B2D833209F43A2D392351F19B2D16309D
S113023008F09A2D922B21F19B2D111101C09A2DBA
S1130240992361F0222351F011506B2D812F0E94CC
S1130250310480E20E941B04072DB6CF8A3209F4D0
S1130260B0CF6B2D812F0E9431048AE20E941B04BF
S1130270F701E10FF11D8F8180831F5F072DA4CF4C
S11302808E3609F0A1CF9FCFCE0143966C010F2E7D
S1130290F3E02F2EF02D392CC1010E946F05F601D9
S11302A081936F01FFEF2F1A3F0A29E022163104D0
S11302B099F7642D752DCE0143960E944900803331
S11302C0D1F582E090E00E946F0511E0180F612FD4
S11302D082E090E00E9467051330E0F00E942D0454
S11302E0682D882D0E94310485E790E00E941E0449
S11302F0812F90E00297982F990F990F890F0E94F0
S11303001B048FE392E4EFE081509040E040E1F77A
S113031000C000000E942D048BE790E00E941E04A0
S1130320662D882D0E94310486E890E00E941E0408
S11303300E942D0437CF813309F063C060E082E06E
S113034090E00E9467050E942D0487E990E00E94D6
S11303501E04FFE926E881E0F15020408040E1F7E7
S113036000C000000E942D0484EA90E00E941E0454
S113037061E080E00E94310484EB90E00E941E045E
S1130380CE0108960E94CC0288858332D1F1813354
S1130390B9F761E081E090E00E9467050E942D04B6
S11303A060E080E00E94310485EC90E00E941E042D
S11303B010E006C0163021F486E40E94A40621C091
S11303C00E94A806082F0E942D04802F0E941B045F
S11303D080ED800F8A3050F4163040F4812F90E085
S11303E0602F03960E9467051F5FE4CF0E942D04CF
S11303F060E080E00E94310485ED90E00E941E04DC
S1130400D9CF0E942D0460E080E00E94310400E016
S113041010E00F2EF5E04F2EF02D512C612C712C95
S113042080E00E94DE0490E0BC01660F771F660F37
S1130430771F680F791F882777FD8095982F0E9472
S1130440AC0720E030E04FE753E40E94110720E0BE
S113045030E048EC52E40E9438084B015C010E94F1
S113046079076B017C01CB0199274AE0BE016F5FDC
S11304707F4F0E94AF0860E080E00E94310485EE67
S113048090E00E941E04CE0101960E941E048EE29A
S11304900E941B046C2D70E080E090E00E94AA078B
S11304A09B01AC01C501B4010E94AC0620E030E020
S11304B048EC52E40E9438080E947907CB0199273E
S11304C04AE0BE016F5F7F4F0E94AF08CE010196E4
S11304D00E941E044FEF60E181E00E941B0582E050
S11304E00E94910680E00E949106E82E80E00E941E
S11304F09106F82E40E060E181E00E941B0590E83F
S1130500F91661F0E0ECFE1619F0F11009C003C011
S11305100BE410E005C0062D172D02C0042D152D87
S11305204AE0BE01675F7F4F8E2D992787FD909526
S11305300E94AF0889EE90E00E941E04CE01099645
S11305400E941E048EE20E941B044AE0BE01675F03
S11305507F4F802F912F0E94AF08CE0109960E94F1
S11305601E0461E080E00E9431048DEE90E00E9460
S11305701E040E944B0654CF40E060E782E00E94D4
S1130580EB044FEF6CE383E00E94EB0440E06CE388
S113059083E00E941B0508950F931F93CF93DF936D
S11305A01F92CDB7DEB78C0144E06CE383E00E9478
S11305B01B05AE014F5F5F4F60E782E00E944B0571
S11305C0898182958F708983811104C08EE6F80138
S11305D0808312C0823049F0843019F0813049F0B0
S11305E00BC083E3F801808307C082E3F8018083B2
S11305F003C081E3F801808348E06CE383E00E9458
S11306001B05AE014F5F5F4F60E782E00E944B0520
S1130610898182958F708983823049F0843019F002
S1130620813061F408C086E3F801808307C085E364
S1130630F801808303C084E3F801808340E16CE324
S113064083E00E941B05AE014F5F5F4F60E782E0CD
S11306500E944B05898182958F708983823049F08D
S1130660843019F0813061F408C089E3F801808393
S113067007C088E3F801808303C087E3F80180831F
S113068040E26CE383E00E941B05AE014F5F5F4FC5
S113069060E782E00E944B05898182958F708230E9
S11306A049F0843019F0813061F408C083E2F80124
S11306B0808307C080E3F801808303C08AE2F801E5
S11306C080830F90DF91CF911F910F910895CF9365
S11306D0C82F40E062E081E00E941B0540E064E036
S11306E081E00E941B054C2F407F60EF80E00E9458
S11306F01B054FEF68E081E00E941B0585E08A95A9
S1130700F1F7000040E068E081E00E941B0590E101
S1130710C99FA001112460EF80E00E941B054FEFE8
S113072068E081E00E941B0585E08A95F1F70000EE
S113073040E068E081E00E941B058FE99FE001979B
S1130740F1F700C00000CF910895CF93C82F4FEF69
S113075062E081E00E941B0540E064E081E00E94C9
S11307601B054C2F407F60EF80E00E941B054FEF7C
S113077068E081E00E941B0585E08A95F1F700009E
S113078040E068E081E00E941B0590E1C99FA00160
S1130790112460EF80E00E941B054FEF68E081E0C8
S11307A00E941B0585E08A95F1F7000040E068E0AF
S11307B081E00E941B058FE99FE00197F1F700C0DB
S11307C00000CF9108954FEF62E081E00E94EB04B6
S11307D040E062E081E00E941B054FEF68E081E0A9
S11307E00E94EB0440E068E081E00E941B054FEFAB
S11307F064E081E00E94EB0440E064E081E00E9458
S11308001B054FEF60EF80E00E94EB0440E060EFD7
S113081081E00E941B0583E30E94670382E30E9438
S1130820670388E20E9467038CE00E94670381E00B
S11308300E94670308950E94A5030895CF93DF9350
S1130840EC018881882331F021960E94A5038991C7
S11308508111FBCFDF91CF91089581E00E9467035E
S11308600895CF93DF93D82FC62F82E00E946703A9
S1130870CC2319F080EC0E946703DD2339F0C0E03B
S113088084E10E946703CF5FCD13FACFDF91CF914C
S11308900895CF92DF92EF92FF920F931F93CF931D
S11308A0DF938C016A0181E190E07C01E61AF70A8A
S11308B069F1C0E0D0E08CEF90E00E94CC0280911E
S11308C0FC008E3621F081E0F60180831FC01C16E7
S11308D01D0644F460E08C2F81500E94310480E2B4
S11308E00E941B0460E08C2F0E943104C8010E9406
S11308F01E04FFE728E381E0F15020408040E1F747
S113090000C000002196CE15DF05A9F60E942D0433
S1130910DF91CF911F910F91FF90EF90DF90CF90D7
S11309200895DF92EF92FF920F931F93CF93DF937B
S11309308C017A0161507109C0E1D0E0C61BD70B6C
S11309401C161D0654F5DD24DA94D60E8CEF90E0C7
S11309500E94CC028091FC008E3621F081E0F701E8
S113096080831BC060E08C2F0E943104C8010E9468
S11309701E04FFE728E381E0F15020408040E1F7C6
S113098000C0000060E08C2F8D0D0E94310480E2D5
S11309900E941B0421972097C9F60E942D04DF9121
S11309A0CF911F910F91FF90EF90DF90089517B8AA
S11309B03E9A3D9A16B8379A309A089597B18F7136
S11309C0982B97B9369A349BFECF349A87B1807EA0
S11309D087B985B10895813081F028F08230B9F06B
S11309E08330F9F008958AB3962F909589238ABBB2
S11309F08AB36423682B6ABB089587B3962F9095B6
S1130A00892387BB87B36423682B67BB089584B3AA
S1130A10962F9095892384BB84B36423682B64BB8D
S1130A20089581B3962F9095892381BB81B3642364
S1130A30682B61BB0895813081F028F08230B9F0D1
S1130A408330F9F008958BB3962F909589238BBB4F
S1130A508BB36423682B6BBB089588B3962F909552
S1130A60892388BB88B36423682B68BB089585B346
S1130A70962F9095892385BB85B36423682B65BB2A
S1130A80089582B3962F9095892382BB82B3642301
S1130A90682B62BB0895813059F028F0823069F0E8
S1130AA0833081F0089589B36823FA01608308953F
S1130AB086B36823FA016083089583B36823FA0137
S1130AC06083089580B36823FA0160830895E199EF
S1130AD0FECF9FBB8EBB6DBBE29AE19A0895E1996C
S1130AE0FECF9FBB8EBBE09A8DB308951F920F92E9
S1130AF00FB60F9211242F933F934F935F936F93ED
S1130B007F938F939F93AF93BF93EF93FF93E09162
S1130B10FA00F091FB000995FF91EF91BF91AF911D
S1130B209F918F917F916F915F914F913F912F9101
S1130B300F900FBE0F901F90189511B88AE280B9DC
S1130B40089596B7946A96BF06B607FEFDCF83B99B
S1130B5084E886BF06B607FEFDCF089583B984E80E
S1130B6086BF06B607FEFDCF91B1987F81E098322B
S1130B7009F480E0089584E886BF06B607FEFDCF39
S1130B8083B10895CF93DF93D62FC42F0E94A1057C
S1130B908D2F0E94AE058C2F0E94AE0584E986BF7E
S1130BA0DF91CF910895CF93DF93C82FD62F0E9462
S1130BB0A1058D2F0E94AE0581E08C0F0E94A10536
S1130BC00E94BB0594E996BFDF91CF910895EF92FF
S1130BD0FF920F931F93CF93DF93EC017B018A0164
S1130BE062E080ED0E94D305888361E080ED0E947D
S1130BF0D305F701808360E080ED0E94D305F801FE
S1130C008083888186FF03C08F71888302C08F73BD
S1130C108883DF91CF911F910F91FF90EF900895FA
S1130C20EF920F931F93CF93DF93162FD42FC22FDE
S1130C30482F65E080ED0E94C205412F64E080EDFD
S1130C400E94C2054D2F66E080ED0E94C20540E47B
S1130C504C0F62E080ED0E94C205402F61E080ED00
S1130C600E94C2054E2D60E080ED0E94C205DF9116
S1130C70CF911F910F91EF900895CF93C82F829534
S1130C808F70805D0E941B048C2F8F70805D0E948A
S1130C901B04CF910895CF93DF9300D01F92CDB75B
S1130CA0DEB7AE014D5F5F4FBE016E5F7F4FCE0179
S1130CB001960E94E70589810E943D068AE30E940D
S1130CC01B048A810E943D068AE30E941B048B81D7
S1130CD00E943D060F900F900F90DF91CF910895E1
S1130CE0CF93DF93EC014FEF60E281E00E94EB04CD
S1130CF04FEF60E881E00E94EB041DB82DB18881BC
S1130D00282B20613981330F330F8A8140E2849F7D
S1130D10C0011124832B822B8DB96E9ADF91CF9160
S1130D2008958FB9779BFECF8FB10895BC0184E2FB
S1130D3094EF0E949B086150710970BD69B988E104
S1130D408AB98EE880BD08955D9BFECF8CB9089565
S1130D505F9BFECF8CB108955058BB27AA270ED0B5
S1130D604DC13ED130F043D120F031F49F3F11F416
S1130D701EF433C10EF4E095E7FB29C1E92F4FD1EE
S1130D8080F3BA17620773078407950718F071F4A4
S1130D909EF567C10EF4E0950B2EBA2FA02D0B0122
S1130DA0B90190010C01CA01A0011124FF27591BAC
S1130DB099F0593F50F4503E68F11A16F040A22FB2
S1130DC0232F342F4427585FF3CF46953795279523
S1130DD0A795F0405395C9F77EF41F16BA0B620B22
S1130DE0730B840BBAF09150A1F0FF0FBB1F661F69
S1130DF0771F881FC2F70EC0BA0F621F731F841FAC
S1130E0048F4879577956795B795F7959E3F08F0D1
S1130E10B3CF9395880F08F09927EE0F9795879590
S1130E2008950CD0EBC0E3D040F0DAD030F021F4D8
S1130E305F3F19F0CCC0511115C1CFC0F0D098F369
S1130E409923C9F35523B1F3951B550BBB27AA2747
S1130E5062177307840738F09F5F5F4F220F331FB9
S1130E60441FAA1FA9F333D00E2E3AF0E0E830D085
S1130E7091505040E695001CCAF729D0FE2F27D088
S1130E80660F771F881FBB1F261737074807AB0756
S1130E90B0E809F0BB0B802DBF01FF2793585F4FCB
S1130EA02AF09E3F510568F092C0DCC05F3FECF32E
S1130EB0983EDCF3869577956795B795F7959F5F90
S1130EC0C9F7880F911D9695879597F90895E1E0E4
S1130ED0660F771F881FBB1F621773078407BA0743
S1130EE020F0621B730B840BBA0BEE1F88F7E0959E
S1130EF0089504D06894B111B5C0089598D088F0CD
S1130F009F5790F0B92F9927B751A0F0D1F0660FF1
S1130F10771F881F991F1AF0BA95C9F712C0B1300C
S1130F2081F09FD0B1E008959CC0672F782F882767
S1130F30B85F39F0B93FCCF3869577956795B3954B
S1130F40D9F73EF490958095709561957F4F8F4FBA
S1130F509F4F0895E89409C097FB3EF490958095BF
S1130F60709561957F4F8F4F9F4F9923A9F0F92F6B
S1130F7096E9BB279395F695879577956795B795E9
S1130F80F111F8CFFAF4BB0F11F460FF1BC06F5FCF
S1130F907F4F8F4F9F4F16C0882311F096E911C0E1
S1130FA0772321F09EE8872F762F05C0662371F002
S1130FB096E8862F70E060E02AF09A95660F771F16
S1130FC0881FDAF7880F9695879597F9089597F90A
S1130FD09F6780E870E060E008959FEF80EC0895DB
S1130FE000240A9416161706180609060895002404
S1130FF00A9412161306140605060895092E03947E
S1131000000C11F4882352F0BB0F40F4BF2B11F4F1
S113101060FF04C06F5F7F4F8F4F9F4F089557FD50
S11310209058440F551F59F05F3F71F04795880F52
S113103097FB991F61F09F3F79F0879508951216E9
S113104013061406551FF2CF4695F1DF08C0161695
S113105017061806991FF1CF869571056105089446
S11310600895E894BB2766277727CB0197F908955D
S11310700BD0C4CFB5DF28F0BADF18F0952309F000
S1131080A6CFABCF1124EECFCADFA0F3959FD1F347
S1131090950F50E0551F629FF001729FBB27F00D22
S11310A0B11D639FAA27F00DB11DAA1F649F662777
S11310B0B00DA11D661F829F2227B00DA11D621FC6
S11310C0739FB00DA11D621F839FA00D611D221F80
S11310D0749F3327A00D611D231F849F600D211D64
S11310E0822F762F6A2F11249F5750408AF0E1F007
S11310F088234AF0EE0FFF1FBB1F661F771F881F50
S113110091505040A9F79E3F510570F060CFAACF8F
S11311105F3FECF3983EDCF3869577956795B7953A
S1131120F795E7959F5FC1F7FE2B880F911D969564
S1131130879597F90895AA1BBB1B51E107C0AA1F05
S1131140BB1FA617B70710F0A61BB70B881F991F64
S11311505A95A9F780959095BC01CD010895BB27B8
S11311604A3031F4992322F4BDE2909581959F4F42
S11311700C94BB08BB27FB015527AA27880F991F8E
S1131180AA1FA41710F0A41B83955051B9F7A05DB2
S1131190AA3308F0A95DA193009779F7B111B1932F
S11311A01192CB010C94D408DC01FC01672F7191DE
S11311B07723E1F7329704C07C916D937083629139
S10F11C0AE17BF07C8F30895F894FFCFE2
S11311CC313233343536456E746572205061737325
S11311DC776F726400626C6F636B0077726F6E670B
S11311EC207061737300656E746572207061737323
S11311FC20616761696E00636F727265637420703D
S113120C61737300666F72206E65772070617373FF
S113121C3A2031004F72205072657373202320746E
S113122C6F20676F005573652055415254207363CA
S113123C7265656E00656E7465722076616C6964A6
S113124C206E6F2E004C4D20002F54430054696DBA
S10D125C653A200048656C6C6F00D1
S9030000FC
